{
  "contractName": "VaccineTracker",
  "abi": [
    {
      "anonymous": false,
      "inputs": [
        {
          "indexed": false,
          "internalType": "string",
          "name": "batchId",
          "type": "string"
        },
        {
          "indexed": false,
          "internalType": "int256",
          "name": "temperature",
          "type": "int256"
        }
      ],
      "name": "TemperatureBreached",
      "type": "event"
    },
    {
      "inputs": [
        {
          "internalType": "string",
          "name": "",
          "type": "string"
        }
      ],
      "name": "vaccines",
      "outputs": [
        {
          "internalType": "string",
          "name": "batchId",
          "type": "string"
        },
        {
          "internalType": "uint256",
          "name": "timestamp",
          "type": "uint256"
        },
        {
          "internalType": "int256",
          "name": "temperature",
          "type": "int256"
        },
        {
          "internalType": "address",
          "name": "handler",
          "type": "address"
        }
      ],
      "stateMutability": "view",
      "type": "function",
      "constant": true
    },
    {
      "inputs": [
        {
          "internalType": "string",
          "name": "_batchId",
          "type": "string"
        },
        {
          "internalType": "int256",
          "name": "_temperature",
          "type": "int256"
        }
      ],
      "name": "logData",
      "outputs": [],
      "stateMutability": "nonpayable",
      "type": "function"
    },
    {
      "inputs": [
        {
          "internalType": "string",
          "name": "_batchId",
          "type": "string"
        }
      ],
      "name": "getVaccineData",
      "outputs": [
        {
          "internalType": "string",
          "name": "",
          "type": "string"
        },
        {
          "internalType": "uint256",
          "name": "",
          "type": "uint256"
        },
        {
          "internalType": "int256",
          "name": "",
          "type": "int256"
        },
        {
          "internalType": "address",
          "name": "",
          "type": "address"
        }
      ],
      "stateMutability": "view",
      "type": "function",
      "constant": true
    }
  ],
  "bytecode": "0x608060405234801561001057600080fd5b50610908806100206000396000f3fe608060405234801561001057600080fd5b50600436106100415760003560e01c80633867476b1461004657806345e6f13a146100795780638727b2cb146100ac575b600080fd5b610060600480360381019061005b919061054b565b6100c8565b60405161007094939291906106be565b60405180910390f35b610093600480360381019061008e919061054b565b61021b565b6040516100a394939291906106be565b60405180910390f35b6100c660048036038101906100c1919061058c565b610309565b005b60606000806000806000866040516100e09190610677565b90815260200160405180910390206040518060800160405290816000820180546101099061081a565b80601f01602080910402602001604051908101604052809291908181526020018280546101359061081a565b80156101825780601f1061015757610100808354040283529160200191610182565b820191906000526020600020905b81548152906001019060200180831161016557829003601f168201915b5050505050815260200160018201548152602001600282015481526020016003820160009054906101000a900473ffffffffffffffffffffffffffffffffffffffff1673ffffffffffffffffffffffffffffffffffffffff1673ffffffffffffffffffffffffffffffffffffffff1681525050905080600001518160200151826040015183606001519450945094509450509193509193565b6000818051602081018201805184825260208301602085012081835280955050505050506000915090508060000180546102549061081a565b80601f01602080910402602001604051908101604052809291908181526020018280546102809061081a565b80156102cd5780601f106102a2576101008083540402835291602001916102cd565b820191906000526020600020905b8154815290600101906020018083116102b057829003601f168201915b5050505050908060010154908060020154908060030160009054906101000a900473ffffffffffffffffffffffffffffffffffffffff16905084565b60405180608001604052808381526020014281526020018281526020013373ffffffffffffffffffffffffffffffffffffffff168152506000836040516103509190610677565b9081526020016040518091039020600082015181600001908051906020019061037a92919061042b565b50602082015181600101556040820151816002015560608201518160030160006101000a81548173ffffffffffffffffffffffffffffffffffffffff021916908373ffffffffffffffffffffffffffffffffffffffff16021790555090505060088113806103e85750600281125b15610427577fa2312981844cffc9243c3a8af5620f7a7e6304669c8e23cfa00752706bc92f46828260405161041e92919061068e565b60405180910390a15b5050565b8280546104379061081a565b90600052602060002090601f01602090048101928261045957600085556104a0565b82601f1061047257805160ff19168380011785556104a0565b828001600101855582156104a0579182015b8281111561049f578251825591602001919060010190610484565b5b5090506104ad91906104b1565b5090565b5b808211156104ca5760008160009055506001016104b2565b5090565b60006104e16104dc8461073b565b61070a565b9050828152602081018484840111156104f957600080fd5b6105048482856107d8565b509392505050565b60008135905061051b816108bb565b92915050565b600082601f83011261053257600080fd5b81356105428482602086016104ce565b91505092915050565b60006020828403121561055d57600080fd5b600082013567ffffffffffffffff81111561057757600080fd5b61058384828501610521565b91505092915050565b6000806040838503121561059f57600080fd5b600083013567ffffffffffffffff8111156105b957600080fd5b6105c585828601610521565b92505060206105d68582860161050c565b9150509250929050565b6105e981610792565b82525050565b6105f8816107a4565b82525050565b60006106098261076b565b6106138185610776565b93506106238185602086016107e7565b61062c816108aa565b840191505092915050565b60006106428261076b565b61064c8185610787565b935061065c8185602086016107e7565b80840191505092915050565b610671816107ce565b82525050565b60006106838284610637565b915081905092915050565b600060408201905081810360008301526106a881856105fe565b90506106b760208301846105ef565b9392505050565b600060808201905081810360008301526106d881876105fe565b90506106e76020830186610668565b6106f460408301856105ef565b61070160608301846105e0565b95945050505050565b6000604051905081810181811067ffffffffffffffff821117156107315761073061087b565b5b8060405250919050565b600067ffffffffffffffff8211156107565761075561087b565b5b601f19601f8301169050602081019050919050565b600081519050919050565b600082825260208201905092915050565b600081905092915050565b600061079d826107ae565b9050919050565b6000819050919050565b600073ffffffffffffffffffffffffffffffffffffffff82169050919050565b6000819050919050565b82818337600083830152505050565b60005b838110156108055780820151818401526020810190506107ea565b83811115610814576000848401525b50505050565b6000600282049050600182168061083257607f821691505b602082108114156108465761084561084c565b5b50919050565b7f4e487b7100000000000000000000000000000000000000000000000000000000600052602260045260246000fd5b7f4e487b7100000000000000000000000000000000000000000000000000000000600052604160045260246000fd5b6000601f19601f8301169050919050565b6108c4816107a4565b81146108cf57600080fd5b5056fea2646970667358221220ed023e7883ef322b790771adb0fd058806051035f8ec164d890dbe9912aa2fb364736f6c63430008000033",
  "immutableReferences": {},
  "source": "// contracts/VaccineTracker.sol\r\npragma solidity ^0.8.0;\r\n\r\ncontract VaccineTracker {\r\n    struct Vaccine {\r\n        string batchId;\r\n        uint timestamp;\r\n        int temperature;\r\n        address handler;\r\n    }\r\n\r\n    mapping(string => Vaccine) public vaccines;\r\n\r\n    event TemperatureBreached(string batchId, int temperature);\r\n\r\n    function logData(string memory _batchId, int _temperature) public {\r\n        vaccines[_batchId] = Vaccine(_batchId, block.timestamp, _temperature, msg.sender);\r\n        if (_temperature > 8 || _temperature < 2) {\r\n            emit TemperatureBreached(_batchId, _temperature);\r\n        }\r\n    }\r\n\r\n    function getVaccineData(string memory _batchId) public view returns (string memory, uint, int, address) {\r\n        Vaccine memory v = vaccines[_batchId];\r\n        return (v.batchId, v.timestamp, v.temperature, v.handler);\r\n    }\r\n}\r\n",
  "sourcePath": "C:\\Users\\prabh\\Desktop\\Vaccine\\vaccine-supply-chain\\contracts\\VaccineTracker.sol",
  "compiler": {
    "name": "solc",
    "version": "0.8.0+commit.c7dfd78e.Emscripten.clang"
  },
  "schemaVersion": "3.4.16",
  "updatedAt": "2024-10-19T19:30:53.877Z",
  "networkType": "ethereum",
  "devdoc": {
    "kind": "dev",
    "methods": {},
    "version": 1
  },
  "userdoc": {
    "kind": "user",
    "methods": {},
    "version": 1
  }
}